:100000000C942A000C9434000C9434000C943400AA
:100010000C9434000C9434000C9434000C94340090
:100020000C9434000C9434000C9434000C94340080
:100030000C9434000C9434000C9434000C94340070
:100040000C9434000C9434000C9434000C94340060
:100050000C94340011241FBECFE5D8E0DEBFCDBF25
:100060000E9436000C94F7000C9400008FEF87BBC1
:1000700011E0D2E0C4E0B8E0A0E1F0E2E0E470E832
:1000800060EC50EE40EF38EF0F2EFCEFFF2EF02D1E
:100090000F2EFEEFEF2EF02D88BB0FE32DE093E047
:1000A000015020409040E1F700C0000018BA0FE96D
:1000B00026E891E0015020409040E1F700C00000A8
:1000C00018BB0FE926E891E0015020409040E1F78D
:1000D00000C00000D8BB0FE926E891E001502040A5
:1000E0009040E1F700C00000C8BB0FE926E891E0AE
:1000F000015020409040E1F700C00000B8BB0FE97C
:1001000026E891E0015020409040E1F700C0000057
:10011000A8BB0FE926E891E0015020409040E1F7AC
:1001200000C00000F8BB0FE926E891E00150204034
:100130009040E1F700C00000E8BB0FE926E891E03D
:10014000015020409040E1F700C0000078BB0FE96B
:1001500026E891E0015020409040E1F700C0000007
:1001600068BB0FE926E891E0015020409040E1F79C
:1001700000C0000058BB0FE926E891E00150204084
:100180009040E1F700C0000048BB0FE926E891E08D
:10019000015020409040E1F700C0000038BB0FE95B
:1001A00026E891E0015020409040E1F700C00000B7
:1001B000F8BA0FE926E891E0015020409040E1F7BD
:1001C00000C00000E8BA0FE926E891E001502040A5
:1001D0009040E1F700C0000088BB0FE32DE093E002
:1001E000015020409040E1F700C0000055CFF89446
:0201F000FFCF3F
:00000001FF
